:1000000066C080C0FDC17EC07DC07CC07BC07AC0A0
:1000100079C0BDC377C076C075C074C073C072C0EC
:1000200071C070C06FC00C036500440072007500A1
:100030006D0020036D0061006B0065002D006D00F8
:100040006100670061007A0069006E002E006400A4
:100050006500040309040902650002010000320979
:100060000400000001010000092401000109000151
:1000700001090401000201030000072401000141FD
:1000800000062402010100062402020200092403E2
:100090000103010201000924030204010101000916
:1000A00005010308000A0000052501010109058179
:1000B0000308000A000005250101031201100100D8
:1000C000000008C016E4050100010200010011242F
:1000D0001FBECFE5D4E0DEBFCDBF10E0A0E6B0E0AC
:1000E000E2EBF8E002C005900D92A236B107D9F715
:1000F00010E0A2E6B0E001C01D92A13AB107E1F71D
:10010000B6D3D5C37DCFCF93209176002E31C1F0E9
:100110002091760024FD16C02AE520937600262F34
:10012000FC01A8E7B0E081918D9321501216DCF319
:10013000C62F88E790E060D164E06C0F6093760092
:10014000CF9108953091770028E8232720937700F6
:10015000E6CFCF93DF9380918700835087FD09C05E
:1001600020918400909183009D3209F44BC010923D
:1001700087008091610084FF35C0609160006F3F0F
:1001800089F1693008F471C0685060936000909103
:100190006B0088E8892780936B00CCE068E02091B1
:1001A00085003091860080916200ACE6B0E0F901F4
:1001B00086FF6EC0862F94919D9331968150D9F71A
:1001C0002F5F3F4F8FEF860F280F311D3093860032
:1001D000209385008CE690E00FD1CC3009F054C01C
:1001E000C093610094E180B3887149F49150D9F7CC
:1001F00010928800109282008AE580937600DF9149
:10020000CF910895883009F0B2CFCCE0D0E0C21B86
:10021000D109C557DF4F83EC80936B008AE580934B
:100220006100109262008881982F9076B9F52A813A
:100230003C81109274009981911136C08F71823087
:1002400009F459C01092750024E730E082E0309341
:100250008600209385009F81911104C09E8198178C
:1002600008F4892F8093600082CF109260009091F3
:100270006B0088E8892780936B00611112C060E0F1
:100280008CE690E0B9D0C4E08FEF80936000A8CFF7
:10029000862F91919D938150E1F792CFCE01FED1AF
:1002A000DACFC4E0C60F7BCF892F8D7F813091F0EC
:1002B000953089F19630A9F1983049F1993009F4D7
:1002C0004AC09A3009F443C09B30B9F124E730E0CA
:1002D00080E0BDCF2111FACF3138C1F7913009F458
:1002E00043C08EE1809376008BE48093770024E70F
:1002F00030E080E0ACCF313809F0A4CF90917600A7
:1003000081E09E3109F080E0809374009BCF2AE861
:1003100030E081E09CCF2093880024E730E080E04B
:1003200096CF8B81813061F1823051F18330F1F0D1
:1003300080E090E4909362008ECF8BE4809377000E
:100340008AE58093760024E730E080E080CF24E7E0
:1003500030E081E07CCF20938A008AE580937600AC
:1003600024E730E080E073CF8AE5BCCF21110BC0D9
:1003700082E590E0909386008093850084E0D9CF59
:10038000CE0178D1D6CF213051F0223089F686E2E5
:1003900090E090938600809385008CE0CACF82E342
:1003A00090E0909386008093850080E2C2CF85B76D
:1003B0008C6085BF85B78E7F85BF8BB780688BBF0C
:1003C000E6E7F0E08BE481838AE580830895A82F37
:1003D000B92F80E090E041E050EA609530E009C03C
:1003E0002D9182279795879510F084279527305E69
:1003F000C8F36F5FA8F30895EADF8D939D93089586
:10040000CF93CFB7CF93C395849BE9F7849B09C063
:10041000849B07C0849B05C0849B03C0849B01C050
:10042000A3C0DF93C0918400DD27C557DF4F849BB5
:1004300002C0DF91EBCF2F930F931F9300B32FEFE9
:1004400004FB20F94F933F9310B34FEF012704FBB8
:1004500021F93BE031C04E7F012F10B3216028C04D
:10046000102F4D7F2260000000B329C04B7F246015
:10047000012F000010B32BC010B3477F28602AC0A3
:100480004F7E00B320612CC04F7D10B320622FC07F
:100490004F7B00B3206432C0422700B349934FEF33
:1004A0000000102714FB20F910B31871C9F1297F3F
:1004B00091F2012704FB21F900B3237F89F2315027
:1004C00058F1102714FB22F910B3277E79F2012787
:1004D00004FB23F92F7C81F200B3102714FB24F9CD
:1004E0002F7971F200C010B3012704FB25F92F7397
:1004F00059F200C000B3102714FB26F9223040F255
:1005000000C010B3012704FB27F9243028F64F77E9
:10051000206810B30000F9CF10E81ABF002719C0F7
:100520003B503195C31BD04010E81ABF0881033CF3
:10053000F9F00B34E9F0209182001981110F1213A8
:10054000EDCF4A81441F093641F10D3211F0013ED1
:1005500029F7009389003F914F911F910F912F919F
:10056000DF91CAB7C7FD4FCFCF91CFBFCF911895BD
:1005700020918900222379F310918700112369F5D6
:1005800034306AF130938700209383001091840007
:100590003BE0311B3093840022C000918700013082
:1005A000E4F40AE54F7049F43091610034FD19C05C
:1005B00000936100CBE6D0E018C03091760034FDA6
:1005C00010C000937600C7E7D0E00FC02795A8F4CD
:1005D0005150A9F4220F0000F9CF4AE503C042EDC3
:1005E00001C0432FC4E1D0E032E011B31861949A06
:1005F00011BB02B320E418E15F93012756E002BB70
:10060000279520F4515021F4220FF9CF012756E00D
:1006100000003B5A02BBD0F2279528F4515029F430
:10062000220F0000F9CF012756E0279502BB20F4E6
:10063000515021F4220FF9CF012756E0299133239D
:1006400002BB21F6077E10918800110FC651D040E1
:1006500002BB11F01093820010E81ABF006111B3C1
:10066000177E402F477E5F9100C000C002BB11BBC8
:1006700042BB71CFFC018381813041F086E590E07F
:10068000909386008093850085E608958BEB90E03B
:10069000909386008093850082E10895FC0180811B
:1006A000982F9076903211F08FEF089587FDFCCF50
:1006B00081E080936A008FEF0895FC01108211821F
:1006C0001282138214821582168287E0089581E0D7
:1006D000089508950895877087B987B187B9369AC4
:1006E0003699FECF84B195B10895CF93DF9300D0B2
:1006F00000D0CDB7DEB7982F929599838A836B830C
:100700004C8310926A0090917600892F807194FF3B
:1007100005C064E0CE010196F6DC81E00F900F90F9
:100720000F900F90DF91CF910895861797070CF4E3
:10073000CB01481759070CF4CA01089597FD1CC056
:10074000811522E0920714F08FEF91E0F894209148
:10075000680030916900AC01421B530B9A019093E1
:10076000690080936800789457FD09C0211552E014
:1007700035073CF08FE7089580E090E0E7CF80E018
:1007800008953595279535952795822F08951F92C1
:100790000F920FB60F9211242F933F934F935F93B5
:1007A0006F938F939F93EF93FF9385E087B987B102
:1007B00087B9369A86B1982F907486FDFBCF24B105
:1007C00035B1325037FD42C0211582E038070CF4B4
:1007D00047C06FE72FEF31E080916600809367009C
:1007E0008091650080936600F89440916800509174
:1007F0006900F901E41BF50BAF0130936900209308
:1008000068007894F7FD05C04115F2E05F0714F128
:100810009FE79093650080916600981738F4909157
:100820006700981718F481E0809364006093630078
:10083000FF91EF919F918F916F915F914F913F91B8
:100840002F910F900FBE0F901F90189560E020E041
:1008500030E0C2CF5595479555954795942FD9CF00
:10086000A9015595479555954795642FB5CF87EEC6
:1008700082BB88E181BB11BA86E886B984E083BF78
:1008800089B7816089BF93DD10926A007894809166
:100890006400882331F040916300463020F41092C8
:1008A000640057DCF4CF6EE380E91FDFF8CFF894E3
:0208B000FFCF78
:0208B200FF5AEB
:00000001FF
