:1000000069C083C0FBC181C080C07FC07EC07DC08D
:100010007CC0BEC37AC079C078C077C076C075C0D6
:1000200074C073C072C0120348006100730069009D
:100030004400720075006D0020036D0061006B00CC
:1000400065002D006D006100670061007A006900A5
:100050006E002E00640065000403090409026500B7
:10006000020100003209040000000101000009241F
:10007000010001090001010904010002010300005F
:1000800007240100014100062402010100062402A8
:1000900002020009240301030102010009240302F2
:1000A00004010101000905010308000A00000525FB
:1000B0000101010905810308000A0000052501016D
:1000C000031201100100000008C016E40501000140
:1000D0000200010011241FBECFE5D4E0DEBFCDBF7A
:1000E00010E0A0E6B0E0E2EAF8E002C005900D9270
:1000F000A236B107D9F720E0A2E6B0E001C01D9218
:10010000A03AB207E1F7A7D3CAC37ACFCF93C62FDD
:10011000209175002E31B9F02091750024FD15C095
:100120002AE5209375002C2FFC01A7E7B0E0819110
:100130008D9321501216DCF36C2F87E790E05AD193
:10014000CC5FC0937500CF9108952091760038E878
:10015000232720937600E7CFCF93DF93809186000B
:10016000835087FD07C0909182009D3209F44BC0F7
:10017000109286008091610084FF35C0609160001C
:100180006F3F89F1693008F473C068506093600074
:1001900080916A0098E8892780936A00CCE068E043
:1001A000209184003091850080916200ABE6B0E040
:1001B000F90186FF70C0862F94919D9331968150EE
:1001C000D9F72F5F3F4F8FEF860F280F311D3093E8
:1001D0008500209384008BE690E00CD1CC3009F0B0
:1001E00056C0C093610094E180B3887149F4915086
:1001F000D9F710928700109281008AE580937500EC
:10020000DF91CF910895883009F0B2CF80918300BB
:10021000CCE0D0E0C81BD109C657DF4F83EC8093F8
:100220006A008AE580936100109262009881892FAC
:100230008076B9F53A814C811092730029812111A1
:1002400036C09F71923009F458C01092740023E7B1
:1002500030E082E030938500209384009F819111EB
:1002600004C09E81981708F4892F8093600080CF86
:100270001092600080916A0098E8892780936A0054
:10028000611112C060E08BE690E0B4D0C4E08FEF63
:1002900080936000A6CF862F91919D938150E1F7C6
:1002A00090CFCE01F9D1DACFC4E0C60F79CF922F2B
:1002B0009D7F913089F0253081F1263099F12830E9
:1002C00041F1293009F446C02A3009F43FC02B30EF
:1002D000A1F123E730E0BECF3111FBCF4138C9F7A0
:1002E000213009F43FC08EE1809375008BE4809348
:1002F000760080E023E730E0ADCF413809F0A5CFAC
:100300009091750081E09E3109F080E08093730048
:100310009CCF29E830E081E09DCF3093870023E730
:1003200030E098CF9B81913049F1923039F1933090
:10033000D9F090E49093620091CF9BE49093760083
:100340009AE59093750023E730E084CF23E730E00F
:1003500081E080CF309389009AE59093750023E780
:1003600030E078CF8AE5C0CF31110BC088E590E04E
:10037000909385008093840084E0DBCFCE0178D118
:10038000D8CF313051F03230A1F686E290E0909330
:1003900085008093840082E1CCCF88E390E0909345
:1003A00085008093840080E2C4CF85B78C6085BFD0
:1003B00085B78E7F85BF8BB780688BBFE5E7F0E0A0
:1003C0008BE481838AE580830895A82FB92F80E08C
:1003D00090E041E050EA609530E009C02D9182271D
:1003E0009795879510F084279527305EC8F36F5F47
:1003F000A8F30895EADF8D939D930895CF93CFB727
:10040000CF93C395849BE9F7849B09C0849B07C065
:10041000849B05C0849B03C0849B01C0A3C0DF9361
:10042000C0918300DD27C657DF4F849B02C0DF9158
:10043000EBCF2F930F931F9300B32FEF04FB20F903
:100440004F933F9310B34FEF012704FB21F93BE09B
:1004500031C04E7F012F10B3216028C0102F4D7F77
:100460002260000000B329C04B7F2460012F0000F0
:1004700010B32BC010B3477F28602AC04F7E00B353
:1004800020612CC04F7D10B320622FC04F7B00B382
:10049000206432C0422700B349934FEF0000102779
:1004A00014FB20F910B31871C9F1297F91F20127CB
:1004B00004FB21F900B3237F89F2315058F1102752
:1004C00014FB22F910B3277E79F2012704FB23F9EC
:1004D0002F7C81F200B3102714FB24F92F7971F2DD
:1004E00000C010B3012704FB25F92F7359F200C097
:1004F00000B3102714FB26F9223040F200C010B3DD
:10050000012704FB27F9243028F64F77206810B321
:100510000000F9CF10E81ABF002719C03B503195F1
:10052000C31BD04010E81ABF0881033CF9F00B341C
:10053000E9F0209181001981110F1213EDCF4A814A
:10054000441F093641F10D3211F0013E29F70093A5
:1005500088003F914F911F910F912F91DF91CAB762
:10056000C7FD4FCFCF91CFBFCF9118952091880075
:10057000222379F310918600112369F534306AF152
:100580003093860020938200109183003BE0311B62
:100590003093830022C0009186000130E4F40AE524
:1005A0004F7049F43091610034FD19C0009361002F
:1005B000CAE6D0E018C03091750034FD10C0009339
:1005C0007500C6E7D0E00FC02795A8F45150A9F4F4
:1005D000220F0000F9CF4AE503C042ED01C0432FCE
:1005E000C4E1D0E032E011B31861949A11BB02B3B8
:1005F00020E418E15F93012756E002BB279520F421
:10060000515021F4220FF9CF012756E000003B5A48
:1006100002BBD0F2279528F4515029F4220F000094
:10062000F9CF012756E0279502BB20F4515021F461
:10063000220FF9CF012756E02991332302BB21F67F
:10064000077E10918700110FC651D04002BB11F0F8
:100650001093810010E81ABF006111B3177E402F7C
:10066000477E5F9100C000C002BB11BB42BB71CF8F
:10067000FC018381813041F08CE590E0909385000E
:100680008093840085E6089581EC90E09093850046
:100690008093840082E1089585B391E0892785BB2A
:1006A0008FEF0895FC0185B392E0892785BB108206
:1006B00011821282138214821582168287E00895B5
:1006C00085B394E0892785BB81E008950895089556
:1006D000877087B987B187B9369A3699FECF84B1CA
:1006E00095B10895CF93DF9300D000D0CDB7DEB79A
:1006F000982F929599838A836B834C839091750090
:10070000892F807194FF05C064E0CE010196FEDC64
:1007100081E00F900F900F900F90DF91CF9108958F
:100720009C01861797070CF49B01CA012417350713
:100730000CF4C9010895811522E0920714F08FEF9F
:1007400091E097FD1BC0F8942091680030916900FA
:10075000AC01421B530B9A0190936900809368008F
:100760007894CA012115324014F08FEF91E097FD83
:1007700008C09595879595958795089580E090E0B8
:10078000E2CF80E090E095958795959587950895BF
:100790001F920F920FB60F9211242F933F934F93F6
:1007A0005F938F939F9385E087B987B187B9369A16
:1007B0003699FECF84B195B19250811522E092070F
:1007C00014F08FEF91E097FD43C0209166002093D5
:1007D00067002091650020936600F89420916800DE
:1007E00030916900AC01421B530B9A019093690050
:1007F000809368007894211552E0350714F02FEFAC
:1008000031E037FD22C03595279535952795209302
:10081000650030916600231738F420916700231794
:1008200018F421E020936400959587959595879518
:10083000809363009F918F915F914F913F912F9192
:100840000F900FBE0F901F90189520E030E0DBCF87
:1008500080E090E0BACF87EE82BB88E181BB11BA1D
:1008600086E886B984E083BF89B7816089BF9DDD52
:1008700078948FEF87BBC2E080916400882331F0C9
:1008800040916300463020F41092640065DCF4CFA0
:100890006EE380E927DF88B38C2788BBF5CFF89417
:0208A000FFCF88
:0208A200FF5AFB
:00000001FF
